{
  "abi": [
    {
      "inputs": [
        {
          "internalType": "address",
          "name": "_oracleAddress",
          "type": "address"
        }
      ],
      "stateMutability": "nonpayable",
      "type": "constructor"
    },
    {
      "anonymous": false,
      "inputs": [
        {
          "indexed": true,
          "internalType": "address",
          "name": "borrower",
          "type": "address"
        },
        {
          "indexed": false,
          "internalType": "uint256",
          "name": "amount",
          "type": "uint256"
        }
      ],
      "name": "Borrow",
      "type": "event"
    },
    {
      "anonymous": false,
      "inputs": [
        {
          "indexed": true,
          "internalType": "address",
          "name": "lender",
          "type": "address"
        },
        {
          "indexed": false,
          "internalType": "address",
          "name": "collection",
          "type": "address"
        },
        {
          "indexed": false,
          "internalType": "uint256",
          "name": "tokenId",
          "type": "uint256"
        }
      ],
      "name": "Deposit",
      "type": "event"
    },
    {
      "anonymous": false,
      "inputs": [
        {
          "indexed": true,
          "internalType": "address",
          "name": "liquidator",
          "type": "address"
        },
        {
          "indexed": false,
          "internalType": "address",
          "name": "collection",
          "type": "address"
        },
        {
          "indexed": false,
          "internalType": "uint256",
          "name": "tokenId",
          "type": "uint256"
        }
      ],
      "name": "Liquidate",
      "type": "event"
    },
    {
      "anonymous": false,
      "inputs": [
        {
          "indexed": true,
          "internalType": "address",
          "name": "lender",
          "type": "address"
        },
        {
          "indexed": false,
          "internalType": "address",
          "name": "collection",
          "type": "address"
        },
        {
          "indexed": false,
          "internalType": "uint256",
          "name": "tokenId",
          "type": "uint256"
        }
      ],
      "name": "Withdraw",
      "type": "event"
    },
    {
      "inputs": [],
      "name": "HEALTH_FACTOR",
      "outputs": [
        {
          "internalType": "uint256",
          "name": "",
          "type": "uint256"
        }
      ],
      "stateMutability": "view",
      "type": "function"
    },
    {
      "inputs": [],
      "name": "INTEREST_RATE",
      "outputs": [
        {
          "internalType": "uint256",
          "name": "",
          "type": "uint256"
        }
      ],
      "stateMutability": "view",
      "type": "function"
    },
    {
      "inputs": [],
      "name": "LIQUIDATION_THRESHOLD",
      "outputs": [
        {
          "internalType": "uint256",
          "name": "",
          "type": "uint256"
        }
      ],
      "stateMutability": "view",
      "type": "function"
    },
    {
      "inputs": [],
      "name": "LTV",
      "outputs": [
        {
          "internalType": "uint256",
          "name": "",
          "type": "uint256"
        }
      ],
      "stateMutability": "view",
      "type": "function"
    },
    {
      "inputs": [
        {
          "internalType": "uint256",
          "name": "_amountAsked",
          "type": "uint256"
        }
      ],
      "name": "borrow",
      "outputs": [],
      "stateMutability": "nonpayable",
      "type": "function"
    },
    {
      "inputs": [
        {
          "internalType": "address",
          "name": "",
          "type": "address"
        }
      ],
      "name": "borrowers",
      "outputs": [
        {
          "internalType": "uint256",
          "name": "amount",
          "type": "uint256"
        },
        {
          "internalType": "uint256",
          "name": "startTime",
          "type": "uint256"
        },
        {
          "internalType": "uint256",
          "name": "lastReimbursment",
          "type": "uint256"
        }
      ],
      "stateMutability": "view",
      "type": "function"
    },
    {
      "inputs": [
        {
          "internalType": "address",
          "name": "_collectionAddress",
          "type": "address"
        },
        {
          "internalType": "uint256",
          "name": "_tokenId",
          "type": "uint256"
        }
      ],
      "name": "deposit",
      "outputs": [],
      "stateMutability": "nonpayable",
      "type": "function"
    },
    {
      "inputs": [
        {
          "internalType": "address",
          "name": "_nftCollectionAddress",
          "type": "address"
        }
      ],
      "name": "getFloorPrice",
      "outputs": [
        {
          "internalType": "uint256",
          "name": "",
          "type": "uint256"
        }
      ],
      "stateMutability": "view",
      "type": "function"
    },
    {
      "inputs": [
        {
          "internalType": "address",
          "name": "",
          "type": "address"
        },
        {
          "internalType": "uint256",
          "name": "",
          "type": "uint256"
        }
      ],
      "name": "lenders",
      "outputs": [
        {
          "internalType": "address",
          "name": "collectionAddress",
          "type": "address"
        },
        {
          "internalType": "uint256",
          "name": "tokenId",
          "type": "uint256"
        },
        {
          "internalType": "uint256",
          "name": "startTime",
          "type": "uint256"
        }
      ],
      "stateMutability": "view",
      "type": "function"
    },
    {
      "inputs": [
        {
          "internalType": "address",
          "name": "_userToLiquidate",
          "type": "address"
        }
      ],
      "name": "liquidate",
      "outputs": [],
      "stateMutability": "payable",
      "type": "function"
    },
    {
      "inputs": [
        {
          "internalType": "address",
          "name": "_for",
          "type": "address"
        }
      ],
      "name": "maxAmountLoan",
      "outputs": [
        {
          "internalType": "uint256",
          "name": "",
          "type": "uint256"
        }
      ],
      "stateMutability": "view",
      "type": "function"
    },
    {
      "inputs": [],
      "name": "oracle",
      "outputs": [
        {
          "internalType": "contract OracleNftFloor",
          "name": "",
          "type": "address"
        }
      ],
      "stateMutability": "view",
      "type": "function"
    },
    {
      "inputs": [],
      "name": "reimburseDebt",
      "outputs": [],
      "stateMutability": "payable",
      "type": "function"
    },
    {
      "inputs": [],
      "name": "withdraw",
      "outputs": [],
      "stateMutability": "payable",
      "type": "function"
    },
    {
      "stateMutability": "payable",
      "type": "receive"
    }
  ],
  "bytecode": {
    "object": "0x608060405234801561001057600080fd5b5060405161175d38038061175d83398101604081905261002f91610054565b600080546001600160a01b0319166001600160a01b0392909216919091179055610084565b60006020828403121561006657600080fd5b81516001600160a01b038116811461007d57600080fd5b9392505050565b6116ca806100936000396000f3fe6080604052600436106100e15760003560e01c8063768ebb121161007f57806390a8ae9b1161005957806390a8ae9b1461024b578063bf5d50c414610261578063c3e214fc146102b7578063c5ebeaec146102d757600080fd5b8063768ebb12146101c45780637dc0d1d0146101d95780638fc220c61461022b57600080fd5b806347e7ef24116100bb57806347e7ef24146101125780635b72a33a1461013257806362965d8e1461015d57806365dbeecf1461017257600080fd5b80632f865568146100ed57806332493fcc146101025780633ccfd60b1461010a57600080fd5b366100e857005b600080fd5b6101006100fb3660046114f1565b6102f7565b005b61010061063e565b610100610649565b34801561011e57600080fd5b5061010061012d36600461150e565b6109ae565b34801561013e57600080fd5b5061014a6312e3515981565b6040519081526020015b60405180910390f35b34801561016957600080fd5b5061014a604b81565b34801561017e57600080fd5b5061019261018d36600461150e565b610cd2565b6040805173ffffffffffffffffffffffffffffffffffffffff9094168452602084019290925290820152606001610154565b3480156101d057600080fd5b5061014a606481565b3480156101e557600080fd5b506000546102069073ffffffffffffffffffffffffffffffffffffffff1681565b60405173ffffffffffffffffffffffffffffffffffffffff9091168152602001610154565b34801561023757600080fd5b5061014a6102463660046114f1565b610d2b565b34801561025757600080fd5b5061014a611f4081565b34801561026d57600080fd5b5061029c61027c3660046114f1565b600260208190526000918252604090912080546001820154919092015483565b60408051938452602084019290925290820152606001610154565b3480156102c357600080fd5b5061014a6102d23660046114f1565b610d3c565b3480156102e357600080fd5b506101006102f236600461153a565b610dd1565b73ffffffffffffffffffffffffffffffffffffffff8116600090815260016020908152604080832080548251818502810185019093528083529192909190849084015b8282101561039c5760008481526020908190206040805160608101825260038602909201805473ffffffffffffffffffffffffffffffffffffffff1683526001808201548486015260029091015491830191909152908352909201910161033a565b5050505073ffffffffffffffffffffffffffffffffffffffff8316600090815260026020818152604080842081516060810183528154815260018201549381019390935290920154918101919091529192506064611f406103fc86610f8b565b6104069190611582565b61041091906115bf565b825190915060009061042290836115bf565b90506064811115610494576040517f08c379a000000000000000000000000000000000000000000000000000000000815260206004820181905260248201527f506f736974696f6e206e6f7420756e646572636f6c6c61746572616c697a656460448201526064015b60405180910390fd5b61049d85611198565b60005b84518110156106365760008582815181106104bd576104bd6115fa565b60200260200101516000015190508073ffffffffffffffffffffffffffffffffffffffff166323b872dd30338986815181106104fb576104fb6115fa565b60209081029190910181015101516040517fffffffff0000000000000000000000000000000000000000000000000000000060e086901b16815273ffffffffffffffffffffffffffffffffffffffff93841660048201529290911660248301526044820152606401600060405180830381600087803b15801561057d57600080fd5b505af1158015610591573d6000803e3d6000fd5b505050503373ffffffffffffffffffffffffffffffffffffffff167faef3faf684172084346f7dc2cc3bb1328d1cc23caec12dd9a82d4a4e56c00b17828885815181106105e0576105e06115fa565b60200260200101516020015160405161061b92919073ffffffffffffffffffffffffffffffffffffffff929092168252602082015260400190565b60405180910390a2508061062e81611629565b9150506104a0565b505050505050565b61064733611198565b565b3360008181526002602081815260408084208151606081018352815481526001808301548286015291909401548483015294845293815283832080548551818402810184019096528086529294929091849084015b828210156107005760008481526020908190206040805160608101825260038602909201805473ffffffffffffffffffffffffffffffffffffffff1683526001808201548486015260029091015491830191909152908352909201910161069e565b5050505090508051600003610771576040517f08c379a000000000000000000000000000000000000000000000000000000000815260206004820152600f60248201527f4e6f206465706f736974206d6164650000000000000000000000000000000000604482015260640161048b565b81602001516000036107df576040517f08c379a000000000000000000000000000000000000000000000000000000000815260206004820152600c60248201527f4e6f206c6f616e206d6164650000000000000000000000000000000000000000604482015260640161048b565b428260400151146107f3576107f333611198565b60005b81518110156109a9576000828281518110610813576108136115fa565b60200260200101516000015190508073ffffffffffffffffffffffffffffffffffffffff166323b872dd3033868681518110610851576108516115fa565b60209081029190910181015101516040517fffffffff0000000000000000000000000000000000000000000000000000000060e086901b16815273ffffffffffffffffffffffffffffffffffffffff93841660048201529290911660248301526044820152606401600060405180830381600087803b1580156108d357600080fd5b505af11580156108e7573d6000803e3d6000fd5b505050503373ffffffffffffffffffffffffffffffffffffffff167f9b1bfa7fa9ee420a16e124f794c35ac9f90472acc99140eb2f6447c714cad8eb848481518110610935576109356115fa565b602002602001015160000151858581518110610953576109536115fa565b60200260200101516020015160405161098e92919073ffffffffffffffffffffffffffffffffffffffff929092168252602082015260400190565b60405180910390a250806109a181611629565b9150506107f6565b505050565b6040517f6352211e000000000000000000000000000000000000000000000000000000008152600481018290528290339073ffffffffffffffffffffffffffffffffffffffff831690636352211e90602401602060405180830381865afa158015610a1d573d6000803e3d6000fd5b505050506040513d601f19601f82011682018060405250810190610a419190611661565b73ffffffffffffffffffffffffffffffffffffffff161480610b0757506040517f081812fc00000000000000000000000000000000000000000000000000000000815260048101839052309073ffffffffffffffffffffffffffffffffffffffff83169063081812fc90602401602060405180830381865afa158015610acb573d6000803e3d6000fd5b505050506040513d601f19601f82011682018060405250810190610aef9190611661565b73ffffffffffffffffffffffffffffffffffffffff16145b610b6d576040517f08c379a000000000000000000000000000000000000000000000000000000000815260206004820152601660248201527f4e6f74206f776e6572206e6f7220617070726f76656400000000000000000000604482015260640161048b565b6040517f23b872dd0000000000000000000000000000000000000000000000000000000081523360048201523060248201526044810183905273ffffffffffffffffffffffffffffffffffffffff8216906323b872dd90606401600060405180830381600087803b158015610be157600080fd5b505af1158015610bf5573d6000803e3d6000fd5b5050336000818152600160208181526040808420815160608101835273ffffffffffffffffffffffffffffffffffffffff8a81168083528286018d8152428487019081528554808a018755958a52988790209351600390950290930180547fffffffffffffffffffffffff000000000000000000000000000000000000000016949092169390931781559051948101949094559351600290930192909255815192835282018790529193507f5548c837ab068cf56a2c2479df0882a4922fd203edb7517321831d95078c5f629250015b60405180910390a2505050565b60016020528160005260406000208181548110610cee57600080fd5b600091825260209091206003909102018054600182015460029092015473ffffffffffffffffffffffffffffffffffffffff909116935090915083565b6000610d36826113ea565b92915050565b600080546040517fc3e214fc00000000000000000000000000000000000000000000000000000000815273ffffffffffffffffffffffffffffffffffffffff84811660048301529091169063c3e214fc90602401602060405180830381865afa158015610dad573d6000803e3d6000fd5b505050506040513d601f19601f82011682018060405250810190610d36919061167e565b6000610ddc336113ea565b905080821115610e6e576040517f08c379a000000000000000000000000000000000000000000000000000000000815260206004820152602360248201527f41736b656420616d6f756e7420626967676572207468616e20636f6c6c61746560448201527f72616c0000000000000000000000000000000000000000000000000000000000606482015260840161048b565b604051600090339084908381818185875af1925050503d8060008114610eb0576040519150601f19603f3d011682016040523d82523d6000602084013e610eb5565b606091505b5050905080610f20576040517f08c379a000000000000000000000000000000000000000000000000000000000815260206004820152601260248201527f657468207061796d656e74206661696c65640000000000000000000000000000604482015260640161048b565b604080516060810182528481524260208083018281528385019283523360008181526002808552908790209551865591516001860155925193019290925591518581527fcbc04eca7e9da35cb1393a6135a199ca52e450d5e9251cbd99f7847d33a367509101610cc5565b73ffffffffffffffffffffffffffffffffffffffff8116600090815260016020908152604080832080548251818502810185019093528083528493849084015b8282101561102d5760008481526020908190206040805160608101825260038602909201805473ffffffffffffffffffffffffffffffffffffffff16835260018082015484860152600290910154918301919091529083529092019101610fcb565b505050509050805160000361109e576040517f08c379a000000000000000000000000000000000000000000000000000000000815260206004820152600d60248201527f4e6f20636f6c6c61746572616c00000000000000000000000000000000000000604482015260640161048b565b6000805b8251811015611190573073ffffffffffffffffffffffffffffffffffffffff1663c3e214fc8483815181106110d9576110d96115fa565b6020908102919091010151516040517fffffffff0000000000000000000000000000000000000000000000000000000060e084901b16815273ffffffffffffffffffffffffffffffffffffffff9091166004820152602401602060405180830381865afa15801561114e573d6000803e3d6000fd5b505050506040513d601f19601f82011682018060405250810190611172919061167e565b61117c9083611697565b91508061118881611629565b9150506110a2565b509392505050565b73ffffffffffffffffffffffffffffffffffffffff811660009081526002602081815260408084208151606081018352815481526001820154938101939093529092015491810182905291906111ee90426116aa565b905060006312e3515966038d7ea4c68000846000015161120e91906115bf565b6112189190611582565b905060006112268284611582565b9050600081856000015161123a9190611697565b9050803410156112a6576040517f08c379a000000000000000000000000000000000000000000000000000000000815260206004820152601c60248201527f76616c75652073656e74206e6f7420636f766572696e67206465627400000000604482015260640161048b565b60006112b282346116aa565b905080156113865760008773ffffffffffffffffffffffffffffffffffffffff168260405160006040518083038185875af1925050503d8060008114611314576040519150601f19603f3d011682016040523d82523d6000602084013e611319565b606091505b5050905080611384576040517f08c379a000000000000000000000000000000000000000000000000000000000815260206004820152601760248201527f657468207265696d627572736d656e74206661696c6564000000000000000000604482015260640161048b565b505b505060408051606081018252855181526020958601518682019081524282840190815273ffffffffffffffffffffffffffffffffffffffff909816600090815260029788905292909220905181559051600182015594519490930193909355505050565b73ffffffffffffffffffffffffffffffffffffffff8116600090815260016020908152604080832080548251818502810185019093528083528493849084015b8282101561148c5760008481526020908190206040805160608101825260038602909201805473ffffffffffffffffffffffffffffffffffffffff1683526001808201548486015260029091015491830191909152908352909201910161142a565b50505050905080516000036114a45750600092915050565b6064604b6114b185610f8b565b6114bb9190611582565b6114c591906115bf565b9392505050565b73ffffffffffffffffffffffffffffffffffffffff811681146114ee57600080fd5b50565b60006020828403121561150357600080fd5b81356114c5816114cc565b6000806040838503121561152157600080fd5b823561152c816114cc565b946020939093013593505050565b60006020828403121561154c57600080fd5b5035919050565b7f4e487b7100000000000000000000000000000000000000000000000000000000600052601160045260246000fd5b6000817fffffffffffffffffffffffffffffffffffffffffffffffffffffffffffffffff04831182151516156115ba576115ba611553565b500290565b6000826115f5577f4e487b7100000000000000000000000000000000000000000000000000000000600052601260045260246000fd5b500490565b7f4e487b7100000000000000000000000000000000000000000000000000000000600052603260045260246000fd5b60007fffffffffffffffffffffffffffffffffffffffffffffffffffffffffffffffff820361165a5761165a611553565b5060010190565b60006020828403121561167357600080fd5b81516114c5816114cc565b60006020828403121561169057600080fd5b5051919050565b80820180821115610d3657610d36611553565b81810381811115610d3657610d3661155356fea164736f6c6343000810000a",
    "linkReferences": {}
  },
  "methodIdentifiers": {
    "HEALTH_FACTOR()": "768ebb12",
    "INTEREST_RATE()": "5b72a33a",
    "LIQUIDATION_THRESHOLD()": "90a8ae9b",
    "LTV()": "62965d8e",
    "borrow(uint256)": "c5ebeaec",
    "borrowers(address)": "bf5d50c4",
    "deposit(address,uint256)": "47e7ef24",
    "getFloorPrice(address)": "c3e214fc",
    "lenders(address,uint256)": "65dbeecf",
    "liquidate(address)": "2f865568",
    "maxAmountLoan(address)": "8fc220c6",
    "oracle()": "7dc0d1d0",
    "reimburseDebt()": "32493fcc",
    "withdraw()": "3ccfd60b"
  },
  "id": 27
}