{
  "abi": [
    {
      "inputs": [
        {
          "internalType": "address",
          "name": "_oracleAddress",
          "type": "address"
        }
      ],
      "stateMutability": "nonpayable",
      "type": "constructor"
    },
    {
      "anonymous": false,
      "inputs": [
        {
          "indexed": true,
          "internalType": "address",
          "name": "from",
          "type": "address"
        },
        {
          "indexed": false,
          "internalType": "uint256",
          "name": "amount",
          "type": "uint256"
        }
      ],
      "name": "Borrow",
      "type": "event"
    },
    {
      "anonymous": false,
      "inputs": [
        {
          "indexed": true,
          "internalType": "address",
          "name": "lender",
          "type": "address"
        },
        {
          "indexed": false,
          "internalType": "address",
          "name": "collection",
          "type": "address"
        },
        {
          "indexed": false,
          "internalType": "uint256",
          "name": "tokenId",
          "type": "uint256"
        }
      ],
      "name": "Deposit",
      "type": "event"
    },
    {
      "anonymous": false,
      "inputs": [
        {
          "indexed": true,
          "internalType": "address",
          "name": "liquidator",
          "type": "address"
        },
        {
          "indexed": false,
          "internalType": "address",
          "name": "collection",
          "type": "address"
        },
        {
          "indexed": false,
          "internalType": "uint256",
          "name": "tokenId",
          "type": "uint256"
        }
      ],
      "name": "Liquidate",
      "type": "event"
    },
    {
      "anonymous": false,
      "inputs": [
        {
          "indexed": true,
          "internalType": "address",
          "name": "from",
          "type": "address"
        },
        {
          "indexed": false,
          "internalType": "uint256",
          "name": "amount",
          "type": "uint256"
        },
        {
          "indexed": false,
          "internalType": "uint256",
          "name": "loanId",
          "type": "uint256"
        }
      ],
      "name": "Reimburse",
      "type": "event"
    },
    {
      "anonymous": false,
      "inputs": [
        {
          "indexed": true,
          "internalType": "address",
          "name": "lender",
          "type": "address"
        },
        {
          "indexed": false,
          "internalType": "address",
          "name": "collection",
          "type": "address"
        },
        {
          "indexed": false,
          "internalType": "uint256",
          "name": "tokenId",
          "type": "uint256"
        }
      ],
      "name": "Withdraw",
      "type": "event"
    },
    {
      "inputs": [],
      "name": "HEALTH_FACTOR",
      "outputs": [
        {
          "internalType": "uint256",
          "name": "",
          "type": "uint256"
        }
      ],
      "stateMutability": "view",
      "type": "function"
    },
    {
      "inputs": [],
      "name": "INTEREST_RATE",
      "outputs": [
        {
          "internalType": "uint256",
          "name": "",
          "type": "uint256"
        }
      ],
      "stateMutability": "view",
      "type": "function"
    },
    {
      "inputs": [],
      "name": "LIQUIDATION_THRESHOLD",
      "outputs": [
        {
          "internalType": "uint256",
          "name": "",
          "type": "uint256"
        }
      ],
      "stateMutability": "view",
      "type": "function"
    },
    {
      "inputs": [],
      "name": "LTV",
      "outputs": [
        {
          "internalType": "uint256",
          "name": "",
          "type": "uint256"
        }
      ],
      "stateMutability": "view",
      "type": "function"
    },
    {
      "inputs": [
        {
          "internalType": "uint256",
          "name": "_amountAsked",
          "type": "uint256"
        }
      ],
      "name": "borrow",
      "outputs": [],
      "stateMutability": "nonpayable",
      "type": "function"
    },
    {
      "inputs": [
        {
          "internalType": "address",
          "name": "",
          "type": "address"
        },
        {
          "internalType": "uint256",
          "name": "",
          "type": "uint256"
        }
      ],
      "name": "borrowers",
      "outputs": [
        {
          "internalType": "uint256",
          "name": "amount",
          "type": "uint256"
        },
        {
          "internalType": "uint256",
          "name": "startTime",
          "type": "uint256"
        },
        {
          "internalType": "uint256",
          "name": "lastReimbursment",
          "type": "uint256"
        }
      ],
      "stateMutability": "view",
      "type": "function"
    },
    {
      "inputs": [
        {
          "internalType": "address",
          "name": "_collectionAddress",
          "type": "address"
        },
        {
          "internalType": "uint256",
          "name": "_tokenId",
          "type": "uint256"
        }
      ],
      "name": "deposit",
      "outputs": [],
      "stateMutability": "nonpayable",
      "type": "function"
    },
    {
      "inputs": [
        {
          "internalType": "address",
          "name": "_user",
          "type": "address"
        }
      ],
      "name": "getDepositFor",
      "outputs": [
        {
          "components": [
            {
              "internalType": "address",
              "name": "collectionAddress",
              "type": "address"
            },
            {
              "internalType": "uint256",
              "name": "tokenId",
              "type": "uint256"
            },
            {
              "internalType": "uint256",
              "name": "startTime",
              "type": "uint256"
            }
          ],
          "internalType": "struct NFTLender.Nft[]",
          "name": "",
          "type": "tuple[]"
        }
      ],
      "stateMutability": "view",
      "type": "function"
    },
    {
      "inputs": [
        {
          "internalType": "address",
          "name": "_nftCollectionAddress",
          "type": "address"
        }
      ],
      "name": "getFloorPrice",
      "outputs": [
        {
          "internalType": "uint256",
          "name": "",
          "type": "uint256"
        }
      ],
      "stateMutability": "view",
      "type": "function"
    },
    {
      "inputs": [],
      "name": "getFullDebt",
      "outputs": [
        {
          "internalType": "uint256",
          "name": "",
          "type": "uint256"
        }
      ],
      "stateMutability": "view",
      "type": "function"
    },
    {
      "inputs": [],
      "name": "getHealthFactor",
      "outputs": [
        {
          "internalType": "uint256",
          "name": "",
          "type": "uint256"
        }
      ],
      "stateMutability": "view",
      "type": "function"
    },
    {
      "inputs": [
        {
          "internalType": "address",
          "name": "_user",
          "type": "address"
        }
      ],
      "name": "getLoanFor",
      "outputs": [
        {
          "components": [
            {
              "internalType": "uint256",
              "name": "amount",
              "type": "uint256"
            },
            {
              "internalType": "uint256",
              "name": "startTime",
              "type": "uint256"
            },
            {
              "internalType": "uint256",
              "name": "lastReimbursment",
              "type": "uint256"
            }
          ],
          "internalType": "struct NFTLender.Loan[]",
          "name": "",
          "type": "tuple[]"
        }
      ],
      "stateMutability": "view",
      "type": "function"
    },
    {
      "inputs": [
        {
          "internalType": "address",
          "name": "",
          "type": "address"
        },
        {
          "internalType": "uint256",
          "name": "",
          "type": "uint256"
        }
      ],
      "name": "lenders",
      "outputs": [
        {
          "internalType": "address",
          "name": "collectionAddress",
          "type": "address"
        },
        {
          "internalType": "uint256",
          "name": "tokenId",
          "type": "uint256"
        },
        {
          "internalType": "uint256",
          "name": "startTime",
          "type": "uint256"
        }
      ],
      "stateMutability": "view",
      "type": "function"
    },
    {
      "inputs": [
        {
          "internalType": "address",
          "name": "_userToLiquidate",
          "type": "address"
        }
      ],
      "name": "liquidateAll",
      "outputs": [],
      "stateMutability": "payable",
      "type": "function"
    },
    {
      "inputs": [
        {
          "internalType": "address",
          "name": "_for",
          "type": "address"
        }
      ],
      "name": "maxAmountLoan",
      "outputs": [
        {
          "internalType": "uint256",
          "name": "",
          "type": "uint256"
        }
      ],
      "stateMutability": "view",
      "type": "function"
    },
    {
      "inputs": [],
      "name": "oracle",
      "outputs": [
        {
          "internalType": "contract OracleNftFloor",
          "name": "",
          "type": "address"
        }
      ],
      "stateMutability": "view",
      "type": "function"
    },
    {
      "inputs": [],
      "name": "reimburseAllDebt",
      "outputs": [],
      "stateMutability": "payable",
      "type": "function"
    },
    {
      "inputs": [
        {
          "internalType": "uint256",
          "name": "_loanId",
          "type": "uint256"
        }
      ],
      "name": "reimburseLoan",
      "outputs": [],
      "stateMutability": "payable",
      "type": "function"
    },
    {
      "inputs": [
        {
          "internalType": "address",
          "name": "_address",
          "type": "address"
        },
        {
          "internalType": "uint256",
          "name": "_id",
          "type": "uint256"
        }
      ],
      "name": "withdraw",
      "outputs": [],
      "stateMutability": "nonpayable",
      "type": "function"
    },
    {
      "inputs": [],
      "name": "withdrawAndReimburseAll",
      "outputs": [],
      "stateMutability": "payable",
      "type": "function"
    },
    {
      "stateMutability": "payable",
      "type": "receive"
    }
  ],
  "bytecode": {
    "object": "0x608060405234801561001057600080fd5b506040516200226f3803806200226f83398101604081905261003191610056565b600080546001600160a01b0319166001600160a01b0392909216919091179055610086565b60006020828403121561006857600080fd5b81516001600160a01b038116811461007f57600080fd5b9392505050565b6121d980620000966000396000f3fe6080604052600436106101635760003560e01c806390a8ae9b116100c0578063e5fae06d11610074578063f335ed7611610059578063f335ed7614610366578063f3fef3a3146103a1578063f71a8b3d146103c157600080fd5b8063e5fae06d14610326578063e798798d1461033957600080fd5b8063c3e214fc116100a5578063c3e214fc146102d1578063c5ebeaec146102f1578063ce2302401461031157600080fd5b806390a8ae9b146102a6578063a5f352b7146102bc57600080fd5b806362965d8e11610117578063768ebb12116100fc578063768ebb12146102395780637dc0d1d01461024e5780638fc220c61461028657600080fd5b806362965d8e146101df57806365dbeecf146101f457600080fd5b806347e7ef241161014857806347e7ef24146101815780634c5432f3146101a15780635b72a33a146101b457600080fd5b806323999bc31461016f5780632fce20181461017957600080fd5b3661016a57005b600080fd5b6101776103ee565b005b6101776103fa565b34801561018d57600080fd5b5061017761019c366004611f23565b610680565b6101776101af366004611f4f565b61093c565b3480156101c057600080fd5b506101cc6312e3515981565b6040519081526020015b60405180910390f35b3480156101eb57600080fd5b506101cc604b81565b34801561020057600080fd5b5061021461020f366004611f23565b610bc1565b604080516001600160a01b0390941684526020840192909252908201526060016101d6565b34801561024557600080fd5b506101cc606481565b34801561025a57600080fd5b5060005461026e906001600160a01b031681565b6040516001600160a01b0390911681526020016101d6565b34801561029257600080fd5b506101cc6102a1366004611f4f565b610c0d565b3480156102b257600080fd5b506101cc611f4081565b3480156102c857600080fd5b506101cc610c1e565b3480156102dd57600080fd5b506101cc6102ec366004611f4f565b610c2e565b3480156102fd57600080fd5b5061017761030c366004611f6c565b610cb6565b34801561031d57600080fd5b506101cc610e53565b610177610334366004611f6c565b610e5e565b34801561034557600080fd5b50610359610354366004611f4f565b610f19565b6040516101d69190611f85565b34801561037257600080fd5b50610386610381366004611f23565b610fb1565b604080519384526020840192909252908201526060016101d6565b3480156103ad57600080fd5b506101776103bc366004611f23565b610ff3565b3480156103cd57600080fd5b506103e16103dc366004611f4f565b611411565b6040516101d69190611fe7565b6103f83333611499565b565b33600090815260016020908152604080832080548251818502810185019093528083529192909190849084015b8282101561047c576000848152602090819020604080516060810182526003860290920180546001600160a01b0316835260018082015484860152600290910154918301919091529083529092019101610427565b50505050905080516000036104d85760405162461bcd60e51b815260206004820152600f60248201527f4e6f206465706f736974206d616465000000000000000000000000000000000060448201526064015b60405180910390fd5b6104e23333611499565b60005b815181101561066457600082828151811061050257610502612033565b6020026020010151600001519050806001600160a01b03166323b872dd303386868151811061053357610533612033565b60209081029190910181015101516040517fffffffff0000000000000000000000000000000000000000000000000000000060e086901b1681526001600160a01b0393841660048201529290911660248301526044820152606401600060405180830381600087803b1580156105a857600080fd5b505af11580156105bc573d6000803e3d6000fd5b50505050336001600160a01b03167f9b1bfa7fa9ee420a16e124f794c35ac9f90472acc99140eb2f6447c714cad8eb8484815181106105fd576105fd612033565b60200260200101516000015185858151811061061b5761061b612033565b6020026020010151602001516040516106499291906001600160a01b03929092168252602082015260400190565b60405180910390a2508061065c81612091565b9150506104e5565b5033600090815260016020526040812061067d91611e61565b50565b6040517f6352211e00000000000000000000000000000000000000000000000000000000815260048101829052829033906001600160a01b03831690636352211e90602401602060405180830381865afa1580156106e2573d6000803e3d6000fd5b505050506040513d601f19601f8201168201806040525081019061070691906120c9565b6001600160a01b031614806107a557506040517f081812fc0000000000000000000000000000000000000000000000000000000081526004810183905230906001600160a01b0383169063081812fc90602401602060405180830381865afa158015610776573d6000803e3d6000fd5b505050506040513d601f19601f8201168201806040525081019061079a91906120c9565b6001600160a01b0316145b6107f15760405162461bcd60e51b815260206004820152601660248201527f4e6f74206f776e6572206e6f7220617070726f7665640000000000000000000060448201526064016104cf565b6040517f23b872dd000000000000000000000000000000000000000000000000000000008152336004820152306024820152604481018390526001600160a01b038216906323b872dd90606401600060405180830381600087803b15801561085857600080fd5b505af115801561086c573d6000803e3d6000fd5b505033600081815260016020818152604080842081516060810183526001600160a01b038a81168083528286018d8152428487019081528554808a018755958a52988790209351600390950290930180547fffffffffffffffffffffffff000000000000000000000000000000000000000016949092169390931781559051948101949094559351600290930192909255815192835282018790529193507f5548c837ab068cf56a2c2479df0882a4922fd203edb7517321831d95078c5f629250015b60405180910390a2505050565b6001600160a01b038116600090815260016020908152604080832080548251818502810185019093528083529192909190849084015b828210156109c7576000848152602090819020604080516060810182526003860290920180546001600160a01b0316835260018082015484860152600290910154918301919091529083529092019101610972565b50505050905060006109d883611628565b90506064811115610a2b5760405162461bcd60e51b815260206004820181905260248201527f506f736974696f6e206e6f7420756e646572636f6c6c61746572616c697a656460448201526064016104cf565b60005b8251811015610b90576000838281518110610a4b57610a4b612033565b6020026020010151600001519050806001600160a01b03166323b872dd3033878681518110610a7c57610a7c612033565b60209081029190910181015101516040517fffffffff0000000000000000000000000000000000000000000000000000000060e086901b1681526001600160a01b0393841660048201529290911660248301526044820152606401600060405180830381600087803b158015610af157600080fd5b505af1158015610b05573d6000803e3d6000fd5b50505050336001600160a01b03167faef3faf684172084346f7dc2cc3bb1328d1cc23caec12dd9a82d4a4e56c00b1782868581518110610b4757610b47612033565b602002602001015160200151604051610b759291906001600160a01b03929092168252602082015260400190565b60405180910390a25080610b8881612091565b915050610a2e565b506001600160a01b0383166000908152600160205260408120610bb291611e61565b610bbc8333611499565b505050565b60016020528160005260406000208181548110610bdd57600080fd5b60009182526020909120600390910201805460018201546002909201546001600160a01b03909116935090915083565b6000610c1882611686565b92915050565b6000610c2933611628565b905090565b600080546040517fc3e214fc0000000000000000000000000000000000000000000000000000000081526001600160a01b0384811660048301529091169063c3e214fc90602401602060405180830381865afa158015610c92573d6000803e3d6000fd5b505050506040513d601f19601f82011682018060405250810190610c1891906120e6565b6000610cc133611747565b905080821115610d395760405162461bcd60e51b815260206004820152602760248201527f41736b656420616d6f756e7420626967676572207468616e20616d6f756e742060448201527f616c6c6f7765640000000000000000000000000000000000000000000000000060648201526084016104cf565b604051600090339084908381818185875af1925050503d8060008114610d7b576040519150601f19603f3d011682016040523d82523d6000602084013e610d80565b606091505b5050905080610dd15760405162461bcd60e51b815260206004820152601260248201527f657468207061796d656e74206661696c6564000000000000000000000000000060448201526064016104cf565b33600081815260026020818152604080842081516060810183528981524281850181815282850191825283546001818101865594895295909720915160039095029091019384559451908301559251910155517fcbc04eca7e9da35cb1393a6135a199ca52e450d5e9251cbd99f7847d33a367509061092f9086815260200190565b6000610c2933611765565b6000610e6b333484611841565b9050610e7733836119d0565b8015610f1557604051600090339083908381818185875af1925050503d8060008114610ebf576040519150601f19603f3d011682016040523d82523d6000602084013e610ec4565b606091505b5050905080610bbc5760405162461bcd60e51b815260206004820152601760248201527f657468207265696d627572736d656e74206661696c656400000000000000000060448201526064016104cf565b5050565b6001600160a01b0381166000908152600160209081526040808320805482518185028101850190935280835260609492939192909184015b82821015610fa6576000848152602090819020604080516060810182526003860290920180546001600160a01b0316835260018082015484860152600290910154918301919091529083529092019101610f51565b505050509050919050565b60026020528160005260406000208181548110610fcd57600080fd5b600091825260209091206003909102018054600182015460029092015490935090915083565b33600090815260016020908152604080832080548251818502810185019093528083529192909190849084015b82821015611075576000848152602090819020604080516060810182526003860290920180546001600160a01b0316835260018082015484860152600290910154918301919091529083529092019101611020565b50505050905080516000036110cc5760405162461bcd60e51b815260206004820152600f60248201527f4e6f206465706f736974206d616465000000000000000000000000000000000060448201526064016104cf565b6110f9604051806060016040528060006001600160a01b0316815260200160008152602001600081525090565b60008060005b845181101561122757866001600160a01b031685828151811061112457611124612033565b6020026020010151600001516001600160a01b031614801561116257508585828151811061115457611154612033565b602002602001015160200151145b156112155784818151811061117957611179612033565b602090810291909101015180516040517fc3e214fc0000000000000000000000000000000000000000000000000000000081526001600160a01b039091166004820152909450309063c3e214fc90602401602060405180830381865afa1580156111e7573d6000803e3d6000fd5b505050506040513d601f19601f8201168201806040525081019061120b91906120e6565b9150809250611227565b8061121f81612091565b9150506110ff565b5082516001600160a01b031661127f5760405162461bcd60e51b815260206004820152600d60248201527f4e6674206e6f7420666f756e640000000000000000000000000000000000000060448201526064016104cf565b600061128a33611765565b9050801561132c57600061129d33611ae0565b905060006112ab84836120ff565b9050600060646112bd611f4084612112565b6112c7919061214f565b905060006112d5858361214f565b9050606481116113275760405162461bcd60e51b815260206004820152601c60248201527f436f6c6c6572616c206c656674206e6f742073756666696369656e740000000060448201526064016104cf565b505050505b835160208501516040517f23b872dd00000000000000000000000000000000000000000000000000000000815230600482015233602482015260448101919091526001600160a01b038216906323b872dd90606401600060405180830381600087803b15801561139b57600080fd5b505af11580156113af573d6000803e3d6000fd5b505050506113bd3385611c9f565b8451602080870151604080516001600160a01b0390941684529183015233917f9b1bfa7fa9ee420a16e124f794c35ac9f90472acc99140eb2f6447c714cad8eb910160405180910390a25050505050505050565b6001600160a01b0381166000908152600260209081526040808320805482518185028101850190935280835260609492939192909184015b82821015610fa65783829060005260206000209060030201604051806060016040529081600082015481526020016001820154815260200160028201548152505081526020019060010190611449565b6001600160a01b038216600090815260026020908152604080832080548251818502810185019093528083529192909190849084015b8282101561151f57838290600052602060002090600302016040518060600160405290816000820154815260200160018201548152602001600282015481525050815260200190600101906114cf565b505050509050600034905060005b825181101561155557611541858383611841565b91508061154d81612091565b91505061152d565b506001600160a01b038416600090815260026020526040812061157791611e82565b8015611622576000836001600160a01b03168260405160006040518083038185875af1925050503d80600081146115ca576040519150601f19603f3d011682016040523d82523d6000602084013e6115cf565b606091505b50509050806116205760405162461bcd60e51b815260206004820152601760248201527f657468207265696d627572736d656e74206661696c656400000000000000000060448201526064016104cf565b505b50505050565b600061163382611765565b60000361164657610c186064600161218a565b60006064611f4061165685611ae0565b6116609190612112565b61166a919061214f565b905061167583611765565b61167f908261214f565b9392505050565b6001600160a01b038116600090815260016020908152604080832080548251818502810185019093528083528493849084015b8282101561170e576000848152602090819020604080516060810182526003860290920180546001600160a01b03168352600180820154848601526002909101549183019190915290835290920191016116b9565b50505050905080516000036117265750600092915050565b6064604b61173385611ae0565b61173d9190612112565b61167f919061214f565b600061175282611765565b61175b83611686565b610c1891906120ff565b6001600160a01b038116600090815260026020908152604080832080548251818502810185019093528083528493849084015b828210156117e85783829060005260206000209060030201604051806060016040529081600082015481526020016001820154815260200160028201548152505081526020019060010190611798565b50505050905060005b815181101561183a5761181c82828151811061180f5761180f612033565b6020026020010151611dfd565b611826908461218a565b92508061183281612091565b9150506117f1565b5050919050565b6001600160a01b038316600090815260026020526040812080548291908490811061186e5761186e612033565b90600052602060002090600302016040518060600160405290816000820154815260200160018201548152602001600282015481525050905060006118b282611dfd565b9050808510156119045760405162461bcd60e51b815260206004820152601c60248201527f76616c75652073656e74206e6f7420636f766572696e6720646562740000000060448201526064016104cf565b60408051606081018252835181526020808501518183015242828401526001600160a01b038916600090815260029091529190912080548690811061194b5761194b612033565b6000918252602091829020835160039092020190815590820151600182015560409091015160029091015561198081866120ff565b60408051838152602081018790529194506001600160a01b038816917f5c1bccfb1405eef1957c49a95e794aaefe0be090552bc0f455aa38aef33303c5910160405180910390a250509392505050565b6001600160a01b038216600090815260026020526040902080546119f6906001906120ff565b81548110611a0657611a06612033565b906000526020600020906003020160026000846001600160a01b03166001600160a01b031681526020019081526020016000208281548110611a4a57611a4a612033565b60009182526020808320845460039093020191825560018085015490830155600293840154918401919091556001600160a01b03851682529190915260409020805480611a9957611a9961219d565b60008281526020812060037fffffffffffffffffffffffffffffffffffffffffffffffffffffffffffffffff90930192830201818155600181018290556002015590555050565b6001600160a01b038116600090815260016020908152604080832080548251818502810185019093528083528493849084015b82821015611b68576000848152602090819020604080516060810182526003860290920180546001600160a01b0316835260018082015484860152600290910154918301919091529083529092019101611b13565b5050505090508051600003611bbf5760405162461bcd60e51b815260206004820152600d60248201527f4e6f20636f6c6c61746572616c0000000000000000000000000000000000000060448201526064016104cf565b6000805b8251811015611c9757306001600160a01b031663c3e214fc848381518110611bed57611bed612033565b6020908102919091010151516040517fffffffff0000000000000000000000000000000000000000000000000000000060e084901b1681526001600160a01b039091166004820152602401602060405180830381865afa158015611c55573d6000803e3d6000fd5b505050506040513d601f19601f82011682018060405250810190611c7991906120e6565b611c83908361218a565b915080611c8f81612091565b915050611bc3565b509392505050565b6001600160a01b038216600090815260016020819052604090912080549091611cc7916120ff565b81548110611cd757611cd7612033565b906000526020600020906003020160016000846001600160a01b03166001600160a01b031681526020019081526020016000208281548110611d1b57611d1b612033565b60009182526020808320845460039093020180547fffffffffffffffffffffffff0000000000000000000000000000000000000000166001600160a01b0393841617815560018086015481830155600295860154959091019490945590851682529190915260409020805480611d9357611d9361219d565b60008281526020812060037fffffffffffffffffffffffffffffffffffffffffffffffffffffffffffffffff9093019283020180547fffffffffffffffffffffffff0000000000000000000000000000000000000000168155600181018290556002015590555050565b600080826040015142611e1091906120ff565b905060006312e3515966038d7ea4c680008560000151611e30919061214f565b611e3a9190612112565b90506000611e488284612112565b8551909150611e5890829061218a565b95945050505050565b508054600082556003029060005260206000209081019061067d9190611ea3565b508054600082556003029060005260206000209081019061067d9190611eec565b5b80821115611ee85780547fffffffffffffffffffffffff00000000000000000000000000000000000000001681556000600182018190556002820155600301611ea4565b5090565b5b80821115611ee8576000808255600182018190556002820155600301611eed565b6001600160a01b038116811461067d57600080fd5b60008060408385031215611f3657600080fd5b8235611f4181611f0e565b946020939093013593505050565b600060208284031215611f6157600080fd5b813561167f81611f0e565b600060208284031215611f7e57600080fd5b5035919050565b602080825282518282018190526000919060409081850190868401855b82811015611fda57815180516001600160a01b0316855286810151878601528501518585015260609093019290850190600101611fa2565b5091979650505050505050565b602080825282518282018190526000919060409081850190868401855b82811015611fda5781518051855286810151878601528501518585015260609093019290850190600101612004565b7f4e487b7100000000000000000000000000000000000000000000000000000000600052603260045260246000fd5b7f4e487b7100000000000000000000000000000000000000000000000000000000600052601160045260246000fd5b60007fffffffffffffffffffffffffffffffffffffffffffffffffffffffffffffffff82036120c2576120c2612062565b5060010190565b6000602082840312156120db57600080fd5b815161167f81611f0e565b6000602082840312156120f857600080fd5b5051919050565b81810381811115610c1857610c18612062565b6000817fffffffffffffffffffffffffffffffffffffffffffffffffffffffffffffffff048311821515161561214a5761214a612062565b500290565b600082612185577f4e487b7100000000000000000000000000000000000000000000000000000000600052601260045260246000fd5b500490565b80820180821115610c1857610c18612062565b7f4e487b7100000000000000000000000000000000000000000000000000000000600052603160045260246000fdfea164736f6c6343000810000a",
    "linkReferences": {}
  },
  "methodIdentifiers": {
    "HEALTH_FACTOR()": "768ebb12",
    "INTEREST_RATE()": "5b72a33a",
    "LIQUIDATION_THRESHOLD()": "90a8ae9b",
    "LTV()": "62965d8e",
    "borrow(uint256)": "c5ebeaec",
    "borrowers(address,uint256)": "f335ed76",
    "deposit(address,uint256)": "47e7ef24",
    "getDepositFor(address)": "e798798d",
    "getFloorPrice(address)": "c3e214fc",
    "getFullDebt()": "ce230240",
    "getHealthFactor()": "a5f352b7",
    "getLoanFor(address)": "f71a8b3d",
    "lenders(address,uint256)": "65dbeecf",
    "liquidateAll(address)": "4c5432f3",
    "maxAmountLoan(address)": "8fc220c6",
    "oracle()": "7dc0d1d0",
    "reimburseAllDebt()": "23999bc3",
    "reimburseLoan(uint256)": "e5fae06d",
    "withdraw(address,uint256)": "f3fef3a3",
    "withdrawAndReimburseAll()": "2fce2018"
  },
  "id": 27
}