{
  "abi": [
    {
      "inputs": [],
      "name": "floorPrice",
      "outputs": [
        {
          "internalType": "uint256",
          "name": "",
          "type": "uint256"
        }
      ],
      "stateMutability": "view",
      "type": "function"
    },
    {
      "inputs": [
        {
          "internalType": "address",
          "name": "_nftCollectionAddress",
          "type": "address"
        }
      ],
      "name": "getFloorPrice",
      "outputs": [
        {
          "internalType": "uint256",
          "name": "",
          "type": "uint256"
        }
      ],
      "stateMutability": "view",
      "type": "function"
    },
    {
      "inputs": [
        {
          "internalType": "uint256",
          "name": "_floorPrice",
          "type": "uint256"
        }
      ],
      "name": "setFloorPrice",
      "outputs": [],
      "stateMutability": "nonpayable",
      "type": "function"
    }
  ],
  "bytecode": {
    "object": "0x6080604052670de0b6b3a764000060005534801561001c57600080fd5b5060df8061002b6000396000f3fe6080604052348015600f57600080fd5b5060043610603c5760003560e01c80633d05829d1460415780639363c812146053578063c3e214fc14606d575b600080fd5b6051604c366004607f565b600055565b005b605b60005481565b60405190815260200160405180910390f35b605b60783660046097565b5060005490565b600060208284031215609057600080fd5b5035919050565b60006020828403121560a857600080fd5b813573ffffffffffffffffffffffffffffffffffffffff8116811460cb57600080fd5b939250505056fea164736f6c6343000810000a",
    "linkReferences": {}
  },
  "methodIdentifiers": {
    "floorPrice()": "9363c812",
    "getFloorPrice(address)": "c3e214fc",
    "setFloorPrice(uint256)": "3d05829d"
  },
  "id": 28
}